{
  "contractName": "CrowdFunding",
  "abi": [
    {
      "inputs": [
        {
          "internalType": "uint256",
          "name": "_platformTax",
          "type": "uint256"
        }
      ],
      "stateMutability": "nonpayable",
      "type": "constructor"
    },
    {
      "inputs": [
        {
          "internalType": "uint256",
          "name": "campaingDeadline",
          "type": "uint256"
        },
        {
          "internalType": "uint256",
          "name": "requestTime",
          "type": "uint256"
        }
      ],
      "name": "DeadLine",
      "type": "error"
    },
    {
      "inputs": [
        {
          "internalType": "uint256",
          "name": "minAmount",
          "type": "uint256"
        },
        {
          "internalType": "uint256",
          "name": "payedAmount",
          "type": "uint256"
        }
      ],
      "name": "LowEtherAmount",
      "type": "error"
    },
    {
      "anonymous": false,
      "inputs": [
        {
          "indexed": false,
          "internalType": "uint256",
          "name": "id",
          "type": "uint256"
        },
        {
          "indexed": false,
          "internalType": "string",
          "name": "actionType",
          "type": "string"
        },
        {
          "indexed": true,
          "internalType": "address",
          "name": "executor",
          "type": "address"
        },
        {
          "indexed": false,
          "internalType": "uint256",
          "name": "timestamp",
          "type": "uint256"
        }
      ],
      "name": "Action",
      "type": "event"
    },
    {
      "anonymous": false,
      "inputs": [
        {
          "indexed": true,
          "internalType": "address",
          "name": "previousOwner",
          "type": "address"
        },
        {
          "indexed": true,
          "internalType": "address",
          "name": "newOwner",
          "type": "address"
        }
      ],
      "name": "OwnershipTransferred",
      "type": "event"
    },
    {
      "inputs": [
        {
          "internalType": "uint256",
          "name": "",
          "type": "uint256"
        }
      ],
      "name": "campaigns",
      "outputs": [
        {
          "internalType": "address",
          "name": "owner",
          "type": "address"
        },
        {
          "internalType": "bool",
          "name": "payedOut",
          "type": "bool"
        },
        {
          "internalType": "string",
          "name": "title",
          "type": "string"
        },
        {
          "internalType": "string",
          "name": "description",
          "type": "string"
        },
        {
          "internalType": "uint256",
          "name": "target",
          "type": "uint256"
        },
        {
          "internalType": "uint256",
          "name": "deadline",
          "type": "uint256"
        },
        {
          "internalType": "uint256",
          "name": "amountCollected",
          "type": "uint256"
        },
        {
          "internalType": "string",
          "name": "image",
          "type": "string"
        }
      ],
      "stateMutability": "view",
      "type": "function"
    },
    {
      "inputs": [],
      "name": "numberOfCampaigns",
      "outputs": [
        {
          "internalType": "uint256",
          "name": "",
          "type": "uint256"
        }
      ],
      "stateMutability": "view",
      "type": "function"
    },
    {
      "inputs": [],
      "name": "owner",
      "outputs": [
        {
          "internalType": "address",
          "name": "",
          "type": "address"
        }
      ],
      "stateMutability": "view",
      "type": "function"
    },
    {
      "inputs": [],
      "name": "platformTax",
      "outputs": [
        {
          "internalType": "uint256",
          "name": "",
          "type": "uint256"
        }
      ],
      "stateMutability": "view",
      "type": "function"
    },
    {
      "inputs": [],
      "name": "renounceOwnership",
      "outputs": [],
      "stateMutability": "nonpayable",
      "type": "function"
    },
    {
      "inputs": [
        {
          "internalType": "address",
          "name": "newOwner",
          "type": "address"
        }
      ],
      "name": "transferOwnership",
      "outputs": [],
      "stateMutability": "nonpayable",
      "type": "function"
    },
    {
      "inputs": [
        {
          "internalType": "address",
          "name": "_owner",
          "type": "address"
        },
        {
          "internalType": "string",
          "name": "_title",
          "type": "string"
        },
        {
          "internalType": "string",
          "name": "_description",
          "type": "string"
        },
        {
          "internalType": "uint256",
          "name": "_target",
          "type": "uint256"
        },
        {
          "internalType": "uint256",
          "name": "_deadline",
          "type": "uint256"
        },
        {
          "internalType": "string",
          "name": "_image",
          "type": "string"
        }
      ],
      "name": "createCampaign",
      "outputs": [
        {
          "internalType": "uint256",
          "name": "",
          "type": "uint256"
        }
      ],
      "stateMutability": "nonpayable",
      "type": "function"
    },
    {
      "inputs": [
        {
          "internalType": "uint256",
          "name": "_id",
          "type": "uint256"
        },
        {
          "internalType": "string",
          "name": "_title",
          "type": "string"
        },
        {
          "internalType": "string",
          "name": "_description",
          "type": "string"
        },
        {
          "internalType": "uint256",
          "name": "_target",
          "type": "uint256"
        },
        {
          "internalType": "uint256",
          "name": "_deadline",
          "type": "uint256"
        },
        {
          "internalType": "string",
          "name": "_image",
          "type": "string"
        }
      ],
      "name": "updateCampaign",
      "outputs": [
        {
          "internalType": "bool",
          "name": "",
          "type": "bool"
        }
      ],
      "stateMutability": "nonpayable",
      "type": "function"
    },
    {
      "inputs": [
        {
          "internalType": "uint256",
          "name": "_id",
          "type": "uint256"
        }
      ],
      "name": "donateToCampaign",
      "outputs": [],
      "stateMutability": "payable",
      "type": "function"
    },
    {
      "inputs": [
        {
          "internalType": "uint256",
          "name": "_id",
          "type": "uint256"
        }
      ],
      "name": "payOutToCampaignTeam",
      "outputs": [
        {
          "internalType": "bool",
          "name": "",
          "type": "bool"
        }
      ],
      "stateMutability": "nonpayable",
      "type": "function"
    },
    {
      "inputs": [
        {
          "internalType": "uint256",
          "name": "_id",
          "type": "uint256"
        }
      ],
      "name": "deleteCampaign",
      "outputs": [
        {
          "internalType": "bool",
          "name": "",
          "type": "bool"
        }
      ],
      "stateMutability": "nonpayable",
      "type": "function"
    },
    {
      "inputs": [
        {
          "internalType": "uint256",
          "name": "_id",
          "type": "uint256"
        }
      ],
      "name": "getDonators",
      "outputs": [
        {
          "internalType": "address[]",
          "name": "",
          "type": "address[]"
        },
        {
          "internalType": "uint256[]",
          "name": "",
          "type": "uint256[]"
        }
      ],
      "stateMutability": "view",
      "type": "function"
    },
    {
      "inputs": [],
      "name": "getCampaigns",
      "outputs": [
        {
          "components": [
            {
              "internalType": "address",
              "name": "owner",
              "type": "address"
            },
            {
              "internalType": "bool",
              "name": "payedOut",
              "type": "bool"
            },
            {
              "internalType": "string",
              "name": "title",
              "type": "string"
            },
            {
              "internalType": "string",
              "name": "description",
              "type": "string"
            },
            {
              "internalType": "uint256",
              "name": "target",
              "type": "uint256"
            },
            {
              "internalType": "uint256",
              "name": "deadline",
              "type": "uint256"
            },
            {
              "internalType": "uint256",
              "name": "amountCollected",
              "type": "uint256"
            },
            {
              "internalType": "string",
              "name": "image",
              "type": "string"
            },
            {
              "internalType": "address[]",
              "name": "donators",
              "type": "address[]"
            },
            {
              "internalType": "uint256[]",
              "name": "donations",
              "type": "uint256[]"
            }
          ],
          "internalType": "struct CrowdFunding.Campaign[]",
          "name": "",
          "type": "tuple[]"
        }
      ],
      "stateMutability": "view",
      "type": "function"
    },
    {
      "inputs": [
        {
          "internalType": "uint256",
          "name": "_platformTax",
          "type": "uint256"
        }
      ],
      "name": "changeTax",
      "outputs": [],
      "stateMutability": "nonpayable",
      "type": "function"
    },
    {
      "inputs": [
        {
          "internalType": "uint256",
          "name": "_id",
          "type": "uint256"
        }
      ],
      "name": "haltCampaign",
      "outputs": [],
      "stateMutability": "nonpayable",
      "type": "function"
    }
  ],
  "bytecode": "0x608060405234801562000010575f80fd5b506040516200326338038062003263833981810160405281019062000036919062000168565b620000566200004a6200006460201b60201c565b6200006b60201b60201c565b806002819055505062000198565b5f33905090565b5f805f9054906101000a900473ffffffffffffffffffffffffffffffffffffffff169050815f806101000a81548173ffffffffffffffffffffffffffffffffffffffff021916908373ffffffffffffffffffffffffffffffffffffffff1602179055508173ffffffffffffffffffffffffffffffffffffffff168173ffffffffffffffffffffffffffffffffffffffff167f8be0079c531659141344cd1fd0a4f28419497f9722a3daafe3b4186f6b6457e060405160405180910390a35050565b5f80fd5b5f819050919050565b620001448162000130565b81146200014f575f80fd5b50565b5f81519050620001628162000139565b92915050565b5f6020828403121562000180576200017f6200012c565b5b5f6200018f8482850162000152565b91505092915050565b6130bd80620001a65f395ff3fe6080604052600436106100e7575f3560e01c80637597019311610089578063a79f928d11610058578063a79f928d146102e3578063b2fabdb01461031f578063d9acef5f14610349578063f2fde38b14610385576100e7565b806375970193146102175780638da5cb5b146102535780639943e3a11461027d578063a6b03633146102b9576100e7565b8063141961bc116100c5578063141961bc1461017a5780633e45c8af146101bd57806342a4fda8146101e5578063715018a614610201576100e7565b806307ca140d146100eb5780630e8676b9146101155780630fa91fa91461013d575b5f80fd5b3480156100f6575f80fd5b506100ff6103ad565b60405161010c9190611a87565b60405180910390f35b348015610120575f80fd5b5061013b60048036038101906101369190611adb565b6103b3565b005b348015610148575f80fd5b50610163600480360381019061015e9190611adb565b610427565b604051610171929190611ca4565b60405180910390f35b348015610185575f80fd5b506101a0600480360381019061019b9190611adb565b610530565b6040516101b4989796959493929190611d8c565b60405180910390f35b3480156101c8575f80fd5b506101e360048036038101906101de9190611adb565b610731565b005b6101ff60048036038101906101fa9190611adb565b610743565b005b34801561020c575f80fd5b506102156108f8565b005b348015610222575f80fd5b5061023d60048036038101906102389190611adb565b61090b565b60405161024a9190611e1d565b60405180910390f35b34801561025e575f80fd5b50610267610afb565b6040516102749190611e36565b60405180910390f35b348015610288575f80fd5b506102a3600480360381019061029e9190611fa5565b610b22565b6040516102b09190611a87565b60405180910390f35b3480156102c4575f80fd5b506102cd610cc4565b6040516102da919061235f565b60405180910390f35b3480156102ee575f80fd5b506103096004803603810190610304919061237f565b6110a3565b6040516103169190611e1d565b60405180910390f35b34801561032a575f80fd5b506103336112bd565b6040516103409190611a87565b60405180910390f35b348015610354575f80fd5b5061036f600480360381019061036a9190611adb565b6112c3565b60405161037c9190611e1d565b60405180910390f35b348015610390575f80fd5b506103ab60048036038101906103a6919061245c565b6114cd565b005b60035481565b6103bb61154f565b4260015f8381526020019081526020015f20600401819055503373ffffffffffffffffffffffffffffffffffffffff167faee8e5d3bbb2f71a951b5632cee20f7ac487b9f8ab4f66a236f7694b13af7c6a824260405161041c9291906124d1565b60405180910390a250565b60608060015f8481526020019081526020015f2060070160015f8581526020019081526020015f20600801818054806020026020016040519081016040528092919081815260200182805480156104d057602002820191905f5260205f20905b815f9054906101000a900473ffffffffffffffffffffffffffffffffffffffff1673ffffffffffffffffffffffffffffffffffffffff1681526020019060010190808311610487575b505050505091508080548060200260200160405190810160405280929190818152602001828054801561052057602002820191905f5260205f20905b81548152602001906001019080831161050c575b5050505050905091509150915091565b6001602052805f5260405f205f91509050805f015f9054906101000a900473ffffffffffffffffffffffffffffffffffffffff1690805f0160149054906101000a900460ff169080600101805461058690612538565b80601f01602080910402602001604051908101604052809291908181526020018280546105b290612538565b80156105fd5780601f106105d4576101008083540402835291602001916105fd565b820191905f5260205f20905b8154815290600101906020018083116105e057829003601f168201915b50505050509080600201805461061290612538565b80601f016020809104026020016040519081016040528092919081815260200182805461063e90612538565b80156106895780601f1061066057610100808354040283529160200191610689565b820191905f5260205f20905b81548152906001019060200180831161066c57829003601f168201915b5050505050908060030154908060040154908060050154908060060180546106b090612538565b80601f01602080910402602001604051908101604052809291908181526020018280546106dc90612538565b80156107275780601f106106fe57610100808354040283529160200191610727565b820191905f5260205f20905b81548152906001019060200180831161070a57829003601f168201915b5050505050905088565b61073961154f565b8060028190555050565b5f340361078a576001346040517f8351d9170000000000000000000000000000000000000000000000000000000081526004016107819291906125aa565b60405180910390fd5b5f60015f8381526020019081526020015f20905042816004015410156107fd5760015f8381526020019081526020015f2060040154426040517f02277f120000000000000000000000000000000000000000000000000000000081526004016107f49291906125d1565b60405180910390fd5b5f3490508160070133908060018154018082558091505060019003905f5260205f20015f9091909190916101000a81548173ffffffffffffffffffffffffffffffffffffffff021916908373ffffffffffffffffffffffffffffffffffffffff1602179055508160080181908060018154018082558091505060019003905f5260205f20015f909190919091505580826005015461089b9190612625565b82600501819055503373ffffffffffffffffffffffffffffffffffffffff167faee8e5d3bbb2f71a951b5632cee20f7ac487b9f8ab4f66a236f7694b13af7c6a84426040516108eb9291906126a2565b60405180910390a2505050565b61090061154f565b6109095f6115cd565b565b5f816109168161168e565b5f73ffffffffffffffffffffffffffffffffffffffff1660015f8581526020019081526020015f205f015f9054906101000a900473ffffffffffffffffffffffffffffffffffffffff1673ffffffffffffffffffffffffffffffffffffffff16116109b6576040517f08c379a00000000000000000000000000000000000000000000000000000000081526004016109ad90612726565b60405180910390fd5b5f60015f8581526020019081526020015f206005015411156109dc576109db8361176e565b5b60015f8481526020019081526020015f205f8082015f6101000a81549073ffffffffffffffffffffffffffffffffffffffff02191690555f820160146101000a81549060ff0219169055600182015f610a359190611975565b600282015f610a449190611975565b600382015f9055600482015f9055600582015f9055600682015f610a689190611975565b600782015f610a7791906119b2565b600882015f610a8691906119d0565b50503373ffffffffffffffffffffffffffffffffffffffff167faee8e5d3bbb2f71a951b5632cee20f7ac487b9f8ab4f66a236f7694b13af7c6a8442604051610ad092919061278e565b60405180910390a2600160035f828254610aea91906127c8565b925050819055506001915050919050565b5f805f9054906101000a900473ffffffffffffffffffffffffffffffffffffffff16905090565b5f8585858585610b35858585858561183c565b874210610b77576040517f08c379a0000000000000000000000000000000000000000000000000000000008152600401610b6e9061286b565b60405180910390fd5b5f60015f60035481526020019081526020015f20905060035f815480929190610b9f90612889565b91905055508c815f015f6101000a81548173ffffffffffffffffffffffffffffffffffffffff021916908373ffffffffffffffffffffffffffffffffffffffff1602179055508b816001019081610bf69190612a64565b508a816002019081610c089190612a64565b508981600301819055508881600401819055505f816005018190555087816006019081610c359190612a64565b505f815f0160146101000a81548160ff0219169083151502179055503373ffffffffffffffffffffffffffffffffffffffff167faee8e5d3bbb2f71a951b5632cee20f7ac487b9f8ab4f66a236f7694b13af7c6a60035442604051610c9b929190612b7d565b60405180910390a26001600354610cb291906127c8565b96505050505050509695505050505050565b60605f60035467ffffffffffffffff811115610ce357610ce2611e81565b5b604051908082528060200260200182016040528015610d1c57816020015b610d096119ee565b815260200190600190039081610d015790505b5090505f5b60035481101561109b575f60015f8381526020019081526020015f20905080604051806101400160405290815f82015f9054906101000a900473ffffffffffffffffffffffffffffffffffffffff1673ffffffffffffffffffffffffffffffffffffffff1673ffffffffffffffffffffffffffffffffffffffff1681526020015f820160149054906101000a900460ff16151515158152602001600182018054610dca90612538565b80601f0160208091040260200160405190810160405280929190818152602001828054610df690612538565b8015610e415780601f10610e1857610100808354040283529160200191610e41565b820191905f5260205f20905b815481529060010190602001808311610e2457829003601f168201915b50505050508152602001600282018054610e5a90612538565b80601f0160208091040260200160405190810160405280929190818152602001828054610e8690612538565b8015610ed15780601f10610ea857610100808354040283529160200191610ed1565b820191905f5260205f20905b815481529060010190602001808311610eb457829003601f168201915b50505050508152602001600382015481526020016004820154815260200160058201548152602001600682018054610f0890612538565b80601f0160208091040260200160405190810160405280929190818152602001828054610f3490612538565b8015610f7f5780601f10610f5657610100808354040283529160200191610f7f565b820191905f5260205f20905b815481529060010190602001808311610f6257829003601f168201915b505050505081526020016007820180548060200260200160405190810160405280929190818152602001828054801561100a57602002820191905f5260205f20905b815f9054906101000a900473ffffffffffffffffffffffffffffffffffffffff1673ffffffffffffffffffffffffffffffffffffffff1681526020019060010190808311610fc1575b505050505081526020016008820180548060200260200160405190810160405280929190818152602001828054801561106057602002820191905f5260205f20905b81548152602001906001019080831161104c575b50505050508152505083838151811061107c5761107b612bb7565b5b602002602001018190525050808061109390612889565b915050610d21565b508091505090565b5f866110ae8161168e565b86868686866110c0858585858561183c565b884210611102576040517f08c379a00000000000000000000000000000000000000000000000000000000081526004016110f99061286b565b60405180910390fd5b5f60015f8f81526020019081526020015f2090505f81600501541461115c576040517f08c379a000000000000000000000000000000000000000000000000000000000815260040161115390612c54565b60405180910390fd5b5f73ffffffffffffffffffffffffffffffffffffffff16815f015f9054906101000a900473ffffffffffffffffffffffffffffffffffffffff1673ffffffffffffffffffffffffffffffffffffffff16116111ec576040517f08c379a00000000000000000000000000000000000000000000000000000000081526004016111e390612726565b60405180910390fd5b8c8160010190816111fd9190612a64565b508b81600201908161120f9190612a64565b508a81600301819055508981600401819055505f81600501819055508881600601908161123c9190612a64565b505f815f0160146101000a81548160ff0219169083151502179055503373ffffffffffffffffffffffffffffffffffffffff167faee8e5d3bbb2f71a951b5632cee20f7ac487b9f8ab4f66a236f7694b13af7c6a8f426040516112a0929190612cbc565b60405180910390a260019750505050505050509695505050505050565b60025481565b5f816112ce8161168e565b6001151560015f8581526020019081526020015f205f0160149054906101000a900460ff16151503611335576040517f08c379a000000000000000000000000000000000000000000000000000000000815260040161132c90612d40565b60405180910390fd5b61133d610afb565b73ffffffffffffffffffffffffffffffffffffffff163373ffffffffffffffffffffffffffffffffffffffff16146113df574260015f8581526020019081526020015f206004015411156113de5760015f8481526020019081526020015f2060040154426040517f02277f120000000000000000000000000000000000000000000000000000000081526004016113d59291906125d1565b60405180910390fd5b5b6001805f8581526020019081526020015f205f0160146101000a81548160ff0219169083151502179055505f80611415856118b4565b9150915061146060015f8781526020019081526020015f205f015f9054906101000a900473ffffffffffffffffffffffffffffffffffffffff16828461145b91906127c8565b6118f8565b61147161146b610afb565b826118f8565b3373ffffffffffffffffffffffffffffffffffffffff167faee8e5d3bbb2f71a951b5632cee20f7ac487b9f8ab4f66a236f7694b13af7c6a86426040516114b9929190612da8565b60405180910390a260019350505050919050565b6114d561154f565b5f73ffffffffffffffffffffffffffffffffffffffff168173ffffffffffffffffffffffffffffffffffffffff1603611543576040517f08c379a000000000000000000000000000000000000000000000000000000000815260040161153a90612e52565b60405180910390fd5b61154c816115cd565b50565b61155761196e565b73ffffffffffffffffffffffffffffffffffffffff16611575610afb565b73ffffffffffffffffffffffffffffffffffffffff16146115cb576040517f08c379a00000000000000000000000000000000000000000000000000000000081526004016115c290612eba565b60405180910390fd5b565b5f805f9054906101000a900473ffffffffffffffffffffffffffffffffffffffff169050815f806101000a81548173ffffffffffffffffffffffffffffffffffffffff021916908373ffffffffffffffffffffffffffffffffffffffff1602179055508173ffffffffffffffffffffffffffffffffffffffff168173ffffffffffffffffffffffffffffffffffffffff167f8be0079c531659141344cd1fd0a4f28419497f9722a3daafe3b4186f6b6457e060405160405180910390a35050565b60015f8281526020019081526020015f205f015f9054906101000a900473ffffffffffffffffffffffffffffffffffffffff1673ffffffffffffffffffffffffffffffffffffffff163373ffffffffffffffffffffffffffffffffffffffff16148061172c57506116fd610afb565b73ffffffffffffffffffffffffffffffffffffffff163373ffffffffffffffffffffffffffffffffffffffff16145b61176b576040517f08c379a000000000000000000000000000000000000000000000000000000000815260040161176290612f22565b60405180910390fd5b50565b5f60015f8381526020019081526020015f2090505f5b8160070180549050811015611837576117f88260070182815481106117ac576117ab612bb7565b5b905f5260205f20015f9054906101000a900473ffffffffffffffffffffffffffffffffffffffff168360080183815481106117ea576117e9612bb7565b5b905f5260205f2001546118f8565b5f82600801828154811061180f5761180e612bb7565b5b905f5260205f2001819055505f8260050181905550808061182f90612889565b915050611784565b505050565b5f855111801561184c57505f8451115b801561185757505f83115b801561186257505f82115b801561186e57505f8151115b6118ad576040517f08c379a00000000000000000000000000000000000000000000000000000000081526004016118a490612f8a565b60405180910390fd5b5050505050565b5f805f60015f8581526020019081526020015f206005015490505f6064600254836118df9190612fa8565b6118e99190613016565b90508181935093505050915091565b5f8273ffffffffffffffffffffffffffffffffffffffff168260405161191d90613073565b5f6040518083038185875af1925050503d805f8114611957576040519150601f19603f3d011682016040523d82523d5f602084013e61195c565b606091505b5050905080611969575f80fd5b505050565b5f33905090565b50805461198190612538565b5f825580601f1061199257506119af565b601f0160209004905f5260205f20908101906119ae9190611a54565b5b50565b5080545f8255905f5260205f20908101906119cd9190611a54565b50565b5080545f8255905f5260205f20908101906119eb9190611a54565b50565b6040518061014001604052805f73ffffffffffffffffffffffffffffffffffffffff1681526020015f1515815260200160608152602001606081526020015f81526020015f81526020015f81526020016060815260200160608152602001606081525090565b5b80821115611a6b575f815f905550600101611a55565b5090565b5f819050919050565b611a8181611a6f565b82525050565b5f602082019050611a9a5f830184611a78565b92915050565b5f604051905090565b5f80fd5b5f80fd5b611aba81611a6f565b8114611ac4575f80fd5b50565b5f81359050611ad581611ab1565b92915050565b5f60208284031215611af057611aef611aa9565b5b5f611afd84828501611ac7565b91505092915050565b5f81519050919050565b5f82825260208201905092915050565b5f819050602082019050919050565b5f73ffffffffffffffffffffffffffffffffffffffff82169050919050565b5f611b5882611b2f565b9050919050565b611b6881611b4e565b82525050565b5f611b798383611b5f565b60208301905092915050565b5f602082019050919050565b5f611b9b82611b06565b611ba58185611b10565b9350611bb083611b20565b805f5b83811015611be0578151611bc78882611b6e565b9750611bd283611b85565b925050600181019050611bb3565b5085935050505092915050565b5f81519050919050565b5f82825260208201905092915050565b5f819050602082019050919050565b611c1f81611a6f565b82525050565b5f611c308383611c16565b60208301905092915050565b5f602082019050919050565b5f611c5282611bed565b611c5c8185611bf7565b9350611c6783611c07565b805f5b83811015611c97578151611c7e8882611c25565b9750611c8983611c3c565b925050600181019050611c6a565b5085935050505092915050565b5f6040820190508181035f830152611cbc8185611b91565b90508181036020830152611cd08184611c48565b90509392505050565b611ce281611b4e565b82525050565b5f8115159050919050565b611cfc81611ce8565b82525050565b5f81519050919050565b5f82825260208201905092915050565b5f5b83811015611d39578082015181840152602081019050611d1e565b5f8484015250505050565b5f601f19601f8301169050919050565b5f611d5e82611d02565b611d688185611d0c565b9350611d78818560208601611d1c565b611d8181611d44565b840191505092915050565b5f61010082019050611da05f83018b611cd9565b611dad602083018a611cf3565b8181036040830152611dbf8189611d54565b90508181036060830152611dd38188611d54565b9050611de26080830187611a78565b611def60a0830186611a78565b611dfc60c0830185611a78565b81810360e0830152611e0e8184611d54565b90509998505050505050505050565b5f602082019050611e305f830184611cf3565b92915050565b5f602082019050611e495f830184611cd9565b92915050565b611e5881611b4e565b8114611e62575f80fd5b50565b5f81359050611e7381611e4f565b92915050565b5f80fd5b5f80fd5b7f4e487b71000000000000000000000000000000000000000000000000000000005f52604160045260245ffd5b611eb782611d44565b810181811067ffffffffffffffff82111715611ed657611ed5611e81565b5b80604052505050565b5f611ee8611aa0565b9050611ef48282611eae565b919050565b5f67ffffffffffffffff821115611f1357611f12611e81565b5b611f1c82611d44565b9050602081019050919050565b828183375f83830152505050565b5f611f49611f4484611ef9565b611edf565b905082815260208101848484011115611f6557611f64611e7d565b5b611f70848285611f29565b509392505050565b5f82601f830112611f8c57611f8b611e79565b5b8135611f9c848260208601611f37565b91505092915050565b5f805f805f8060c08789031215611fbf57611fbe611aa9565b5b5f611fcc89828a01611e65565b965050602087013567ffffffffffffffff811115611fed57611fec611aad565b5b611ff989828a01611f78565b955050604087013567ffffffffffffffff81111561201a57612019611aad565b5b61202689828a01611f78565b945050606061203789828a01611ac7565b935050608061204889828a01611ac7565b92505060a087013567ffffffffffffffff81111561206957612068611aad565b5b61207589828a01611f78565b9150509295509295509295565b5f81519050919050565b5f82825260208201905092915050565b5f819050602082019050919050565b6120b481611ce8565b82525050565b5f82825260208201905092915050565b5f6120d482611d02565b6120de81856120ba565b93506120ee818560208601611d1c565b6120f781611d44565b840191505092915050565b5f82825260208201905092915050565b5f61211c82611b06565b6121268185612102565b935061213183611b20565b805f5b838110156121615781516121488882611b6e565b975061215383611b85565b925050600181019050612134565b5085935050505092915050565b5f82825260208201905092915050565b5f61218882611bed565b612192818561216e565b935061219d83611c07565b805f5b838110156121cd5781516121b48882611c25565b97506121bf83611c3c565b9250506001810190506121a0565b5085935050505092915050565b5f61014083015f8301516121f05f860182611b5f565b50602083015161220360208601826120ab565b506040830151848203604086015261221b82826120ca565b9150506060830151848203606086015261223582826120ca565b915050608083015161224a6080860182611c16565b5060a083015161225d60a0860182611c16565b5060c083015161227060c0860182611c16565b5060e083015184820360e086015261228882826120ca565b9150506101008301518482036101008601526122a48282612112565b9150506101208301518482036101208601526122c0828261217e565b9150508091505092915050565b5f6122d883836121da565b905092915050565b5f602082019050919050565b5f6122f682612082565b612300818561208c565b9350836020820285016123128561209c565b805f5b8581101561234d578484038952815161232e85826122cd565b9450612339836122e0565b925060208a01995050600181019050612315565b50829750879550505050505092915050565b5f6020820190508181035f83015261237781846122ec565b905092915050565b5f805f805f8060c0878903121561239957612398611aa9565b5b5f6123a689828a01611ac7565b965050602087013567ffffffffffffffff8111156123c7576123c6611aad565b5b6123d389828a01611f78565b955050604087013567ffffffffffffffff8111156123f4576123f3611aad565b5b61240089828a01611f78565b945050606061241189828a01611ac7565b935050608061242289828a01611ac7565b92505060a087013567ffffffffffffffff81111561244357612442611aad565b5b61244f89828a01611f78565b9150509295509295509295565b5f6020828403121561247157612470611aa9565b5b5f61247e84828501611e65565b91505092915050565b7f43616d706169676e2068616c74656400000000000000000000000000000000005f82015250565b5f6124bb600f83611d0c565b91506124c682612487565b602082019050919050565b5f6060820190506124e45f830185611a78565b81810360208301526124f5816124af565b90506125046040830184611a78565b9392505050565b7f4e487b71000000000000000000000000000000000000000000000000000000005f52602260045260245ffd5b5f600282049050600182168061254f57607f821691505b6020821081036125625761256161250b565b5b50919050565b5f819050919050565b5f819050919050565b5f61259461258f61258a84612568565b612571565b611a6f565b9050919050565b6125a48161257a565b82525050565b5f6040820190506125bd5f83018561259b565b6125ca6020830184611a78565b9392505050565b5f6040820190506125e45f830185611a78565b6125f16020830184611a78565b9392505050565b7f4e487b71000000000000000000000000000000000000000000000000000000005f52601160045260245ffd5b5f61262f82611a6f565b915061263a83611a6f565b9250828201905080821115612652576126516125f8565b5b92915050565b7f446f6e6174696f6e20546f205468652043616d706169676e00000000000000005f82015250565b5f61268c601883611d0c565b915061269782612658565b602082019050919050565b5f6060820190506126b55f830185611a78565b81810360208301526126c681612680565b90506126d56040830184611a78565b9392505050565b7f4e6f2063616d706169676e2065786973742077697468207468697320494400005f82015250565b5f612710601e83611d0c565b915061271b826126dc565b602082019050919050565b5f6020820190508181035f83015261273d81612704565b9050919050565b7f43616d706169676e2044656c65746564000000000000000000000000000000005f82015250565b5f612778601083611d0c565b915061278382612744565b602082019050919050565b5f6060820190506127a15f830185611a78565b81810360208301526127b28161276c565b90506127c16040830184611a78565b9392505050565b5f6127d282611a6f565b91506127dd83611a6f565b92508282039050818111156127f5576127f46125f8565b5b92915050565b7f54686520646561646c696e652073686f756c642062652061206461746520696e5f8201527f20746865206675747572652e0000000000000000000000000000000000000000602082015250565b5f612855602c83611d0c565b9150612860826127fb565b604082019050919050565b5f6020820190508181035f83015261288281612849565b9050919050565b5f61289382611a6f565b91507fffffffffffffffffffffffffffffffffffffffffffffffffffffffffffffffff82036128c5576128c46125f8565b5b600182019050919050565b5f819050815f5260205f209050919050565b5f6020601f8301049050919050565b5f82821b905092915050565b5f6008830261292c7fffffffffffffffffffffffffffffffffffffffffffffffffffffffffffffffff826128f1565b61293686836128f1565b95508019841693508086168417925050509392505050565b5f61296861296361295e84611a6f565b612571565b611a6f565b9050919050565b5f819050919050565b6129818361294e565b61299561298d8261296f565b8484546128fd565b825550505050565b5f90565b6129a961299d565b6129b4818484612978565b505050565b5b818110156129d7576129cc5f826129a1565b6001810190506129ba565b5050565b601f821115612a1c576129ed816128d0565b6129f6846128e2565b81016020851015612a05578190505b612a19612a11856128e2565b8301826129b9565b50505b505050565b5f82821c905092915050565b5f612a3c5f1984600802612a21565b1980831691505092915050565b5f612a548383612a2d565b9150826002028217905092915050565b612a6d82611d02565b67ffffffffffffffff811115612a8657612a85611e81565b5b612a908254612538565b612a9b8282856129db565b5f60209050601f831160018114612acc575f8415612aba578287015190505b612ac48582612a49565b865550612b2b565b601f198416612ada866128d0565b5f5b82811015612b0157848901518255600182019150602085019450602081019050612adc565b86831015612b1e5784890151612b1a601f891682612a2d565b8355505b6001600288020188555050505b505050505050565b7f43616d706169676e2043726561746564000000000000000000000000000000005f82015250565b5f612b67601083611d0c565b9150612b7282612b33565b602082019050919050565b5f606082019050612b905f830185611a78565b8181036020830152612ba181612b5b565b9050612bb06040830184611a78565b9392505050565b7f4e487b71000000000000000000000000000000000000000000000000000000005f52603260045260245ffd5b7f43616e2774207570646174652064756520746f20616d6f756e7420636f6c6c655f8201527f6374656400000000000000000000000000000000000000000000000000000000602082015250565b5f612c3e602483611d0c565b9150612c4982612be4565b604082019050919050565b5f6020820190508181035f830152612c6b81612c32565b9050919050565b7f43616d706169676e2055706461746564000000000000000000000000000000005f82015250565b5f612ca6601083611d0c565b9150612cb182612c72565b602082019050919050565b5f606082019050612ccf5f830185611a78565b8181036020830152612ce081612c9a565b9050612cef6040830184611a78565b9392505050565b7f46756e64732077697468647261776564206265666f72650000000000000000005f82015250565b5f612d2a601783611d0c565b9150612d3582612cf6565b602082019050919050565b5f6020820190508181035f830152612d5781612d1e565b9050919050565b7f46756e6473205769746864726177616c000000000000000000000000000000005f82015250565b5f612d92601083611d0c565b9150612d9d82612d5e565b602082019050919050565b5f606082019050612dbb5f830185611a78565b8181036020830152612dcc81612d86565b9050612ddb6040830184611a78565b9392505050565b7f4f776e61626c653a206e6577206f776e657220697320746865207a65726f20615f8201527f6464726573730000000000000000000000000000000000000000000000000000602082015250565b5f612e3c602683611d0c565b9150612e4782612de2565b604082019050919050565b5f6020820190508181035f830152612e6981612e30565b9050919050565b7f4f776e61626c653a2063616c6c6572206973206e6f7420746865206f776e65725f82015250565b5f612ea4602083611d0c565b9150612eaf82612e70565b602082019050919050565b5f6020820190508181035f830152612ed181612e98565b9050919050565b7f556e617574686f72697a656420456e74697479000000000000000000000000005f82015250565b5f612f0c601383611d0c565b9150612f1782612ed8565b602082019050919050565b5f6020820190508181035f830152612f3981612f00565b9050919050565b7f4e756c6c2076616c7565206e6f742061636365707461626c65000000000000005f82015250565b5f612f74601983611d0c565b9150612f7f82612f40565b602082019050919050565b5f6020820190508181035f830152612fa181612f68565b9050919050565b5f612fb282611a6f565b9150612fbd83611a6f565b9250828202612fcb81611a6f565b91508282048414831517612fe257612fe16125f8565b5b5092915050565b7f4e487b71000000000000000000000000000000000000000000000000000000005f52601260045260245ffd5b5f61302082611a6f565b915061302b83611a6f565b92508261303b5761303a612fe9565b5b828204905092915050565b5f81905092915050565b50565b5f61305e5f83613046565b915061306982613050565b5f82019050919050565b5f61307d82613053565b915081905091905056fea26469706673582212204083fc420d0cca464321827353db02947bd2c23ace0c3af7b8e3203364ebe41764736f6c63430008140033",
  "immutableReferences": {},
  "source": "// SPDX-License-Identifier: MIT\r\npragma solidity ^0.8.19;\r\nimport \"@openzeppelin/contracts/access/Ownable.sol\";\r\n// import {CampaignTypes} from \"./CampaignTypes.sol\";\r\n\r\ncontract CrowdFunding is Ownable {\r\n    error LowEtherAmount(uint minAmount, uint payedAmount);\r\n    error DeadLine(uint campaingDeadline, uint requestTime);\r\n\r\n    struct Campaign {\r\n        address owner;\r\n        bool payedOut;\r\n        string title;\r\n        string description;\r\n        uint256 target;\r\n        uint256 deadline;\r\n        uint256 amountCollected;\r\n        string image;\r\n        address[] donators;\r\n        uint256[] donations;\r\n    }\r\n\r\n    mapping(uint256 => Campaign) public campaigns;\r\n\r\n    uint256 public platformTax;\r\n    uint256 public numberOfCampaigns;\r\n\r\n    event Action (\r\n        uint256 id,\r\n        string actionType,\r\n        address indexed executor,\r\n        uint256 timestamp\r\n    );\r\n\r\n    modifier PrivilageEntity(uint _id) {\r\n        _privilagedEntity(_id);\r\n        _;\r\n    }\r\n\r\n    modifier NotNull(\r\n        string memory title,\r\n        string memory description,\r\n        uint256 target,\r\n        uint256 deadline,\r\n        string memory image) {\r\n            _nullChecker(title, description, target, deadline, image);\r\n            _;\r\n        }\r\n\r\n    constructor(uint256 _platformTax) {\r\n        platformTax = _platformTax;\r\n    }\r\n\r\n    function createCampaign(\r\n        address _owner, \r\n        string memory _title, \r\n        string memory _description,\r\n        uint256 _target, \r\n        uint256 _deadline, \r\n        string memory _image\r\n        ) public NotNull(_title, _description, _target, _deadline, _image) returns (uint256) {\r\n            require(block.timestamp <  _deadline, \"The deadline should be a date in the future.\");\r\n            Campaign storage campaign = campaigns[numberOfCampaigns];\r\n            numberOfCampaigns++;\r\n\r\n            campaign.owner = _owner;\r\n            campaign.title = _title;\r\n            campaign.description = _description;\r\n            campaign.target = _target;\r\n            campaign.deadline = _deadline;\r\n            campaign.amountCollected = 0;\r\n            campaign.image = _image;\r\n            campaign.payedOut = false;\r\n\r\n            emit Action (\r\n                numberOfCampaigns,\r\n                \"Campaign Created\",\r\n                msg.sender,\r\n                block.timestamp\r\n            );\r\n\r\n            return numberOfCampaigns - 1;\r\n    }\r\n\r\n    function updateCampaign(\r\n        uint256 _id,\r\n        string memory _title, \r\n        string memory _description,\r\n        uint256 _target,\r\n        uint256 _deadline,\r\n        string memory _image\r\n         ) public PrivilageEntity(_id) NotNull(_title, _description, _target, _deadline, _image) returns (bool) {\r\n            require(block.timestamp <  _deadline, \"The deadline should be a date in the future.\");\r\n            Campaign storage campaign = campaigns[_id];\r\n            require(campaign.amountCollected == 0, \"Can't update due to amount collected\");\r\n            require(campaign.owner > address(0), \"No campaign exist with this ID\");\r\n\r\n            campaign.title = _title;\r\n            campaign.description = _description;\r\n            campaign.target = _target;\r\n            campaign.deadline = _deadline;\r\n            campaign.amountCollected = 0;\r\n            campaign.image = _image;\r\n            campaign.payedOut = false;\r\n\r\n            emit Action (\r\n                _id,\r\n                \"Campaign Updated\",\r\n                msg.sender,\r\n                block.timestamp\r\n            );\r\n            return true;\r\n    }\r\n\r\n\r\n\r\n    function donateToCampaign(uint256 _id) public payable {\r\n        if(msg.value == 0 wei) revert LowEtherAmount({minAmount: 1 wei, payedAmount: msg.value});\r\n        Campaign storage campaign = campaigns[_id];\r\n        if(campaign.deadline < block.timestamp) {\r\n            revert DeadLine(\r\n                {\r\n                    campaingDeadline:campaigns[_id].deadline,\r\n                    requestTime: block.timestamp\r\n                }\r\n            );\r\n        }\r\n        uint256 amount = msg.value;\r\n\r\n        campaign.donators.push(msg.sender);\r\n        campaign.donations.push(amount);\r\n\r\n        campaign.amountCollected = campaign.amountCollected + amount;\r\n        emit Action (\r\n            _id,\r\n            \"Donation To The Campaign\",\r\n            msg.sender,\r\n            block.timestamp\r\n        );\r\n    }\r\n\r\n    function payOutToCampaignTeam(uint256 _id) public PrivilageEntity(_id) returns (bool) {\r\n        if(campaigns[_id].payedOut == true) revert(\"Funds withdrawed before\");\r\n        if(msg.sender != address(owner())) {\r\n            if(campaigns[_id].deadline > block.timestamp) {\r\n                revert DeadLine(\r\n                    {\r\n                        campaingDeadline:campaigns[_id].deadline,\r\n                        requestTime: block.timestamp\r\n                    }\r\n                );\r\n            }\r\n        }\r\n\r\n        campaigns[_id].payedOut = true;\r\n        (uint256 raisedAmount, uint256 taxAmount) = _calculateTax(_id);\r\n        _payTo(campaigns[_id].owner, (raisedAmount - taxAmount));\r\n        _payTo(owner(), taxAmount);\r\n        emit Action (\r\n            _id,\r\n            \"Funds Withdrawal\",\r\n            msg.sender,\r\n            block.timestamp\r\n        );\r\n        return true;\r\n    }\r\n\r\n    function deleteCampaign(uint256 _id) public PrivilageEntity(_id) returns (bool) {\r\n        // to check if a capmpaign with specific id exists.\r\n        require(campaigns[_id].owner > address(0), \"No campaign exist with this ID\");\r\n        if(campaigns[_id].amountCollected > 0) {\r\n            _refundDonators(_id);\r\n        }\r\n        delete campaigns[_id];\r\n\r\n        emit Action (\r\n            _id,\r\n            \"Campaign Deleted\",\r\n            msg.sender,\r\n            block.timestamp\r\n        );\r\n\r\n        numberOfCampaigns -= 1;\r\n        return true;\r\n    }\r\n\r\n    function _refundDonators(uint _id) internal {\r\n        Campaign storage campaign = campaigns[_id]; \r\n        for(uint i; i < campaign.donators.length; i++) {\r\n            _payTo(campaign.donators[i], campaign.donations[i]);\r\n            campaign.donations[i] = 0;\r\n            campaign.amountCollected = 0;\r\n        }\r\n    }\r\n\r\n    function getDonators(uint256 _id) public view returns (address[] memory, uint256[] memory) {\r\n        return (campaigns[_id].donators, campaigns[_id].donations);\r\n    }\r\n\r\n    function getCampaigns() public view returns (Campaign[] memory) {\r\n        Campaign[] memory allCampaigns = new Campaign[](numberOfCampaigns);\r\n\r\n        for(uint i=0; i < numberOfCampaigns; i++) {\r\n            Campaign storage item = campaigns[i];\r\n\r\n            allCampaigns[i] = item;\r\n        }\r\n        return allCampaigns;\r\n    }\r\n\r\n    function changeTax(uint256 _platformTax) public onlyOwner {\r\n        platformTax = _platformTax;\r\n    }\r\n\r\n    function haltCampaign(uint256 _id) public onlyOwner {\r\n        campaigns[_id].deadline = block.timestamp;\r\n\r\n        emit Action (\r\n            _id,\r\n            \"Campaign halted\",\r\n            msg.sender,\r\n            block.timestamp\r\n        );\r\n    }\r\n\r\n    function _calculateTax(uint256 _id) internal view returns (uint, uint) {\r\n        uint raised = campaigns[_id].amountCollected;\r\n        uint tax = (raised * platformTax) / 100;\r\n        return (raised, tax);\r\n    }\r\n\r\n    function _payTo(address to, uint256 amount) internal {\r\n        (bool success, ) = payable(to).call{value: amount}(\"\");\r\n        require(success);\r\n    }\r\n\r\n    function _nullChecker(\r\n        string memory _title,\r\n        string memory _description,\r\n        uint256 _target,\r\n        uint256 _deadline,\r\n        string memory _image\r\n        ) internal pure {\r\n            require((\r\n                    bytes(_title).length > 0 \r\n                    && bytes(_description).length > 0 \r\n                    && _target > 0 \r\n                    && _deadline > 0 \r\n                    && bytes(_image).length > 0\r\n                ), \"Null value not acceptable\");\r\n    }\r\n\r\n    function _privilagedEntity(uint256 _id) internal view {\r\n        require(\r\n            msg.sender == campaigns[_id].owner ||\r\n            msg.sender == owner(),\r\n            \"Unauthorized Entity\"\r\n        );\r\n    } \r\n}",
  "sourcePath": "C:\\Users\\hayat\\OneDrive\\Desktop\\All code\\Final_project 4\\RiseTogether\\web3\\contracts\\CrowdFunding.sol",
  "compiler": {
    "name": "solc",
    "version": "0.8.20+commit.a1b79de6.Emscripten.clang"
  },
  "schemaVersion": "3.4.14",
  "updatedAt": "2023-07-21T09:32:46.260Z",
  "devdoc": {
    "kind": "dev",
    "methods": {
      "owner()": {
        "details": "Returns the address of the current owner."
      },
      "renounceOwnership()": {
        "details": "Leaves the contract without owner. It will not be possible to call `onlyOwner` functions. Can only be called by the current owner. NOTE: Renouncing ownership will leave the contract without an owner, thereby disabling any functionality that is only available to the owner."
      },
      "transferOwnership(address)": {
        "details": "Transfers ownership of the contract to a new account (`newOwner`). Can only be called by the current owner."
      }
    },
    "version": 1
  },
  "userdoc": {
    "kind": "user",
    "methods": {},
    "version": 1
  }
}